:020000040800F2
:1000000088D30420A9020008B73400087D2C00081A
:10001000B5340008C5070008993900080000000041
:10002000000000000000000000000000BB340008D9
:10003000B108000800000000B9340008BF3400080F
:10004000C3020008C3020008C3020008C30200087C
:10005000C3020008C3020008C3020008C30200086C
:10006000C3020008C3020008C3020008C30200085C
:10007000C3020008C3020008C3020008C30200084C
:10008000C3020008C302000881060008C30200087A
:10009000C3020008C3020008C3020008C30200082C
:1000A000C3020008C3020008C3020008C30200081C
:1000B00081350008C3020008C3020008C30200081B
:1000C000C3020008C3020008C3020008C3020008FC
:1000D000C3020008C3020008C3020008C3020008EC
:1000E000C3020008C3020008C3020008C3020008DC
:1000F000C3020008C3020008C3020008C3020008CC
:10010000C3020008C3020008C3020008C3020008BB
:10011000C3020008C3020008C3020008C3020008AB
:1001200001080008C3020008C3020008C302000857
:10013000C3020008C3020008C3020008C30200088B
:10014000C3020008C3020008C3020008C30200087B
:10015000C3020008C3020008C3020008C30200086B
:10016000C3020008C3020008C3020008C30200085B
:10017000C3020008C3020008C30200080000000018
:10018000C3020008C3020008C3020008C30200083B
:10019000C3020008C3020008C3020008C30200082B
:1001A000C3020008C3020008C3020008C30200081B
:1001B000C3020008C3020008C3020008C30200080B
:1001C000C3020008C302000800F002F800F05CF867
:1001D0000AA090E8000C82448344AAF10107DA45A2
:1001E00001D100F051F8AFF2090EBAE80F0013F098
:1001F000010F18BFFB1A43F00103184728CA020079
:1002000048CA02000A444FF0000C10F8013B13F0FA
:10021000070408BF10F8014B1D1108BF10F8015B5F
:10022000641E05D010F8016B641E01F8016BF9D152
:1002300013F0080F1EBF10F8014BAD1C0C1B09D1A9
:100240006D1E58BF01F801CBFAD505E014F8016B1B
:1002500001F8016B6D1EF9D59142D6D370470000AD
:100260000023002400250026103A28BF78C1FBD8BF
:10027000520728BF30C148BF0B6070471FB528F038
:1002800073F91FBD10B510BD00F079F91146FFF7E5
:10029000F5FF22F0CDFB00F097F903B4FFF7F2FF72
:1002A00003BC00F09FF90000094880470948004757
:1002B000FEE7FEE7FEE7FEE7FEE7FEE7FEE7FEE716
:1002C000FEE7FEE704480549054A064B7047000073
:1002D00071350008C901000888CD042088D30420A6
:1002E00088CF042088CF042053EA020C00F06980F4
:1002F0002DE9F04B4FF00006002B1FBFB3FA83F53A
:1003000003FA05F424FA05F65E4012BF1643B2FA6A
:1003100082F502FA05F4C5F120051EBF22FA05FC9C
:1003200044EA0C04203556EA044C4FEA144418BF42
:10033000641C4FF000084FF00009904271EB030C71
:1003400039D3002919BFB1FA81F701FA07F6B0FADB
:1003500080F700FA07F6C7F120071EBF20FA07FC56
:1003600046EA0C062037B6FBF4FCA7EB0507103F66
:1003700007F01F0BCBF120060CFA0BFB2CFA06F64C
:1003800044BFB3460026202FA4BF5E464FF0000BAB
:100390005BEA060C08BF4FF0010B19EB0B09ABFB36
:1003A000027C48EB0608C01B06FB02CC0BFB03CC0F
:1003B00071EB0C01C1E70B46024641464846BDE8D9
:1003C000F08B13B54FF000004FF00001AFF3008049
:1003D000BDE81C40704740EA0103024630B59B0768
:1003E00010D14FF0013400E008C208C91D1B9D4325
:1003F00015EAC41FF8D013F0FF0102F8011B0DD05D
:100400001B0AF8E711F8013B002B02F8013B05D06D
:1004100011F8013B002B02F8013BF3D130BD10B5C0
:10042000431C02E010F8011B71B18107FAD14FF0B3
:10043000013202C88C1A8C4314EAC211F9D0C01AD6
:100440000A0603D0C01E10BDC01A10BD0A0401D098
:10045000801E10BD0902FCD0401E10BD10B5203A10
:10046000C0F00B80B1E81850203AA0E81850B1E86D
:100470001850A0E81850BFF4F5AF5FEA027C24BF23
:10048000B1E81850A0E8185044BF18C918C0BDE81A
:1004900010405FEA827C24BF51F8043B40F8043BE3
:1004A00008BF7047D20728BF31F8023B48BF11F898
:1004B000012B28BF20F8023B48BF00F8012B7047F2
:1004C0004FF0000200B5134694469646203922BFED
:1004D000A0E80C50A0E80C50B1F12001BFF4F7AF38
:1004E000090728BFA0E80C5048BF0CC05DF804EB1A
:1004F000890028BF40F8042B08BF704748BF20F888
:10050000022B11F0804F18BF00F8012B704700003C
:100510004FF0013C50F8042B51F8043B9A4215D19E
:10052000A2EB0C03934313EACC130BD150F8042B2A
:1005300051F8043B9A4209D1A2EB0C03934313EA0E
:10054000CC13E7D04FF00000704700BFD01A01BABB
:10055000B1FA81F101F0180122FA01F0CB40C1F1AA
:100560002001DBB2C0B2C01A2CFA01F3D11A9143B8
:1005700011EAC311E6D1704770477047704775465E
:1005800000F02CF8AE4605006946534620F00700FF
:10059000854618B020B5FFF795FEBDE820404FF026
:1005A00000064FF000074FF000084FF0000B21F05D
:1005B0000701AC46ACE8C009ACE8C009ACE8C0092A
:1005C000ACE8C0098D46704710B50446AFF3008013
:1005D0002046BDE81040FFF760BE000000487047AD
:1005E00024CD042001491820ABBEFEE726000200FE
:1005F000704710B50146806B026C12F0500F05D0A9
:10060000026CD20626D500F066FA10BD016C41F4EA
:100610000071016401688A6812F0405F17D1826935
:10062000AAB9CA6A12F4700F02D08A6852050ED4B1
:100630004A6822F020024A60016C21F48071016452
:10064000016CC90403D4016C41F00101016400F0A4
:1006500013FA10BD806BC26C0846BDE8104010470D
:1006600010B5806B40210164416C41F0040141648C
:1006700000F031FA10BD10B5806B00F02BFA10BD00
:10068000014800F029BA0000940904204A496FF09B
:10069000706210B5D1F8043323F44033C1F8043349
:1006A000D1F8043344682343C1F8043301684B682C
:1006B00023F480734B60016803694C6844EA0323A8
:1006C0004B6001684B6823F040734B60016884689D
:1006D0004B6823434B6001688B6823F400638B6095
:1006E0000168C4688B6823438B60816AD1420168CA
:1006F0008A6822F070628A6001680DD0836A8A6815
:100700001A438A6001688A6822F040528A60016850
:10071000C36A8A681A4302E08A6822F040528A60FB
:1007200001688A6822F002028A60016882698B6827
:1007300043EA42028A6090F820100029016811D033
:100740001E4A4B6843F400634B6001684B6823F416
:1007500060434B600168446A4B6802EB44321343C8
:100760004B6003E04A6822F400624A600168144B5F
:10077000CA6A22F47002CA620168848BCA6A03EBF7
:1007800004531A43CA6201688A6822F400728A60BC
:10079000016890F830208B6843EA42228A60016841
:1007A0008A6822F480628A60016840698A6842EA45
:1007B0008020886010BD00000020014000E0FFFFA5
:1007C0000000F0FFFEE700000149002008607047CC
:1007D000000000200149012008607047000000204F
:1007E00070470000014900200860704704000020A5
:1007F0000149012008607047040000207047000094
:10080000014800F02BBB0000DC090420016818231C
:10081000CAB2103AB2FBF3F2054B6FF30901032A97
:100820009B5CC36500D9091D8165084670470000BF
:100830007285020810B583694FF0C074826A014660
:10084000002053B1B3F5005F15D072B1012A0CD06E
:10085000022A0AD0032A09D104E01AB1012A06D0DB
:10086000022A03D1C96AC90100D5012010BDC96A95
:10087000A142FAD010BD002AF7D0012AF2D0022AF4
:10088000F3D0032AF3D010BD30B50468256825F4F1
:1008900080252560046863608368402B036803D06B
:1008A00099600068C26030BD9A600068C16030BD68
:1008B000704772B6FEE77047F8B50025009590F8CE
:1008C0003C20012A1DD0012280F83C20664C0723E1
:1008D000D6070A68092A22D9B24220D007680A3A04
:1008E00002EB420CFA6803FA0CF39A43FA600A68C6
:1008F000A24208D102680B7AD76847EA0363D36043
:1009000022E00220F8BD07680A3A8B6802EB420237
:10091000D7F80CC0934043EA0C03FB6014E007686F
:1009200002EB4202D7F810C093402CEA030CC7F840
:1009300010C003680F788A68D3F810C007EB470728
:10094000BA4042EA0C021A614A681F23072A16D2EB
:100950000768521E02EB820C7A6B03FA0CF39A437F
:100960007A6303680F790A887F1ED3F834C092B285
:1009700007EB8707BA4042EA0C025A632DE007688A
:100980000D2A15D2D21F02EB820C3A6B03FA0CF33C
:100990009A433A6302680F790B88FF1FD2F830C080
:1009A0009BB207EB8707BB4043EA0C03136314E0D9
:1009B0000D3A02EB820CFA6A03FA0CF39A43FA62DC
:1009C00003680F790A880D3FD3F82CC092B207EB69
:1009D0008707BA4042EA0C02DA62244A036893426B
:1009E00008D10B68B34205D1D2F8043323F4400395
:1009F000C2F80433036893420ED10B68122B0BD15B
:100A0000D2F8043323F40003C2F80433D2F80433D9
:100A100043F48003C2F804330368934220D10B6887
:100A2000A34201D0112B1BD1D2F8043323F480034D
:100A3000C2F80433D2F8043343F40003C2F8043399
:100A40000968A1420CD10A490A4A0968B1FBF2F1CE
:100A500001EB8101490000E0491E00910029FBD112
:100A600080F83C500020F8BD12000010002001402A
:100A70002000002040420F002DE9F04100251348DE
:100A800004212C4602F0B0F8114A00204FF42F76D2
:100A9000A2F5AF6101F6340340F6E44CC70731F824
:100AA000107007FB0CF74FEA17370BD023F81570BF
:100AB0006D1C401CB042EFDBBDE8F041034804214F
:100AC00002F016B822F81470641CF2E7380B042008
:100AD0001C0404207047704770B50446006806681F
:100AE000456816F0020F05F020012AD049B3216CA9
:100AF000C90603D4216C41F400712164816811F0AE
:100B0000405F17D1A169A9B9C16A11F4700F02D071
:100B1000816849050ED4416821F020014160206CB4
:100B200020F480702064206CC00403D4206C40F05A
:100B3000010020642046FFF79FFF21686FF012003C
:100B4000086016F0040F05F0800132D089B3206CE4
:100B5000C00603D4206C40F40050206420688168F3
:100B600011F4401F1ED1816B11F4401F02D0816827
:100B7000490517D44168490514D4816811F0405FD4
:100B800010D1A16971B9416821F080014160206CE8
:100B900020F480502064206CC00503D4206C40F009
:100BA000010020642046FFF786FE21686FF00C00EC
:100BB000086016F0010F05F040010FD071B12068F8
:100BC0000068C0070AD0206C40F4803020642046C2
:100BD00000F043F821686FF00100086016F0200F64
:100BE00005F080610ED000290CD0606C6FF02005FC
:100BF00040F002006064206805602046FFF76BFF4C
:100C00002068056070BD70B504004FF0000503D08A
:100C1000206C002610B107E0012070BD204600F0D6
:100C20001DF8666484F83C60206CC00610D4206C0B
:100C300020F4885040F0020020642046FFF726FD93
:100C40006664206C20F0020040F00100206400E0A7
:100C5000012584F83C60284670BD7047F0B587B028
:100C6000064614216846FFF72BFC29493068884264
:100C70004CD12848016841F480610160006800F4AB
:100C80008060059023481438016841F0200101601C
:100C9000016801F020010591016841F00101016046
:100CA000006800254FF48067009700F00100059070
:100CB00003241948CDE90145694600F061FA012095
:100CC00069468DE83100154800F05AFA15484FF48E
:100CD000807C134C8105C21484E823004B1320460A
:100CE000C4E90357C4E907C56562C4E9052300F0F8
:100CF00085F908B1FFF7DDFDB46300220121A66389
:100D0000122000F09FFE122000F08EFE07B0F0BD12
:100D1000002201404438024000140240000002401A
:100D2000DC09042010640240F8B50D460446002199
:100D3000009190F83C00012807D0012084F83C0085
:100D400020688368DB0702D011E00220F8BD8668C6
:100D50003B4B46F0010686603A480068B0FBF3F072
:100D600000EB400000E0401E00900028FBD120680E
:100D70008368DB0759D0236C40F20166B34343F428
:100D8000807323644068400505D5206C20F4005032
:100D900040F480502064206CC00404D5606C20F0C6
:100DA0000600606400E061646FF0220084F83C108B
:100DB000A36B2549D963A36B24491964A36B244908
:100DC000D964216808602068416841F08061416011
:100DD0002068816841F48071816021681346A06BAE
:100DE0002A464C3100F07CF91A49D1F80403C006B8
:100DF000206811D0884207D1826812F0405F03D189
:100E0000826842F080428260D1F80403C00614D4A4
:100E100011492068884210D1816811F0405F0CD1DF
:100E2000816841F08041816007E0206C40F0100053
:100E30002064606C40F0010060640020F8BD000098
:100E400040420F0020000020F3050008770600084C
:100E50006106000800200140002201402DE9F8430E
:100E600004464FF00009644B0820CDF800904FF481
:100E70001652A56D94F85C101B682E68B3FBF2F750
:100E800000FA01F131420FD021680A6852070BD5F0
:100E90000A6822F004020A6094F85C108840A86096
:100EA000606D40F00100606594F85C104FF001083F
:100EB00008FA01F0304208D021684969090604D5D2
:100EC000A860606D40F00200606594F85C1004203A
:100ED0008840304208D021680968890704D5A86095
:100EE000606D40F00400606594F85C10102088404C
:100EF000304218D021680968090714D5A860206815
:100F00000168490304D50068000308D5A16C07E017
:100F10000168C90503D4016821F008010160216C52
:100F200009B12046884794F85C1020208840304260
:100F300031D021680968C9062DD5A86094F835001C
:100F400005282068016806D0490347D500680003DA
:100F50001DD4616C1CE021F016010160206841691C
:100F600021F080014161206C08B9A06C20B120689B
:100F7000016821F00801016094F85C303F229A403A
:100F8000AA6084F8358084F83490216D1FE0E16B0D
:100F900009B120468847606D00282BD0606DC007DE
:100FA00014D0052084F835002068016821F0010183
:100FB00001600098401C0090B84203D82068006887
:100FC000C007F6D184F8358084F83490E16C0029AC
:100FD00010D001B02046BDE8F04308470168C905BC
:100FE000D5D4036823F01003036084F8358084F8B7
:100FF0003490CCE7BDE8F883200000202DE9F047CD
:10100000044600F0E7F9054664B102214FF00009FB
:1010100084F8351084F834902068016821F00101CB
:1010200001600EE00120BDE8F08700BF00F0D2F9BA
:10103000401B052805D920216165032084F835006F
:10104000F1E720680068C007F0D1D4E90020D4E9B6
:101050000251D4E9043C284304F11805194308431C
:10106000116895E8E00140EA0C001C4B2843194048
:1010700040EA060040EA0700B8F1040F40EA010028
:1010800003D1D4E90B1319430843106020680126EB
:10109000656A4069042D20F0070045EA00050CD17F
:1010A000D4E90A01054341B12046FFF7C3FB20B153
:1010B0004020606584F83560B4E7206845612046CB
:1010C000FFF7A4FB94F85C303F229A408260C4F89A
:1010D000549084F835600020A5E700003F8010F0B0
:1010E0002DE9F041044690F8340000250128A66D52
:1010F0000ED094F835C00127002084F83470BCF17C
:10110000010F07D0022584F834002846BDE8F0819D
:101110000220FBE7022784F8357060652046FFF760
:10112000B3FB94F85C103F208840B06020680168F1
:1011300041F0160101602068416941F08001416180
:10114000206C20B12068016841F00801016020682E
:10115000016841F001010160D7E7000070B5044665
:1011600000F038F90546601C02D0044800780444B9
:1011700000F030F9401BA042FAD370BD14000020EB
:101180002DE9F84FDFF80CB2012403254FF00F0AC8
:1011900000220BF1040E00BF0B6804FA02F6334084
:1011A000B34278D10F7907F00307012F01D0022F46
:1011B0001AD187684FEA4209D1F80CC005FA09F83C
:1011C00027EA08070CFA09FC4CEA070CC0F808C02B
:1011D000476891F804C0B743CCF3001C0CFA02FC3A
:1011E0004CEA070CC0F804C00E79F643B6070BD0E2
:1011F000C6684FEA420C8F6805FA0CF826EA080622
:1012000007FA0CF73743C7600E7906F00306022E83
:1012100012D1D6084FEA427800EB860600960F6995
:10122000D6F820904FEAD8660AFA06FCB74029EAB9
:101230000C063743009E37620F7906684FEA420C6E
:1012400007F0030705FA0CF807FA0CF726EA080678
:10125000374307604E6816F4403F1CD04E4E376847
:1012600047F480473760366822F00308970706F492
:1012700080460096494E3F0F4644B146D6F808686E
:10128000DFF81C810AFA07FC404526EA0C0603D168
:101290004FF0000C41E076E0DFF808C1604502D174
:1012A0004FF0010C39E0DFF800C1604502D14FF08A
:1012B000020C32E0DFF8F4C0604502D14FF0030CBD
:1012C0002BE0DFF8ECC0604502D14FF0040C24E0C5
:1012D000DFF8E0C0604502D14FF0050C1DE0DFF8FB
:1012E000D8C0604502D14FF0060C16E0DFF8CCC044
:1012F000604502D14FF0070C0FE0DFF8C4C0604535
:1013000002D14FF0080C08E0DFF8B8C0604502D108
:101310004FF0090C01E04FF00A0C0CFA07FC4CEA04
:10132000060CC9F808C84F68DBF80060FF0226EA1F
:10133000030600D51E437746CBF80060D1F804C001
:10134000DEF800605FEA8C2C26EA030600D51E4317
:10135000DFF840C03E60ACF1040C4F68DCF8006080
:10136000BF0326EA030600D51E430A4FCCF80060EF
:10137000083FD1F804C03E685FEACC3C26EA030689
:1013800000D51E433E60521C102AFFF405AFBDE895
:10139000F88F0000083C0140443802400030014012
:1013A000000002400004024000080240000C02401D
:1013B000001002400014024000180240001C0240CD
:1013C00000200240002402400AB1816170470904F4
:1013D000FBE700000148806870470000140000200F
:1013E00030B590F84120202A24D190F84020012ADD
:1013F00020D0012380F84030242280F8412020238F
:1014000000240268156825F001051560026815685A
:1014100025F480551560026815680D431560016854
:101420000A6842F001020A6080F8413080F84040CA
:10143000002030BD022030BD30B590F84120202A78
:1014400022D190F84020012A1ED0012380F840309C
:10145000242280F84120202400250268136823F00C
:10146000010313600268136823F4706343EA0121E7
:10147000116001680A6842F001020A6080F8414088
:1014800080F84050002030BD022030BD70B504000F
:1014900004D094F84100002510B106E0012070BD91
:1014A000204684F8405000F0FFF8242084F84100E2
:1014B0002068016821F001010160D4E9001020F0EA
:1014C000706008612068816821F400418160E068F3
:1014D00021680128A06806D040F404408860E068D4
:1014E000022803D006E040F40040F7E721684FF4FB
:1014F0000060486020212068114A4368134343601C
:101500002068C26822F40042C26054F8106B0DCC0F
:10151000104340EA0320F06054F81C3CD4E9000278
:101520001043186054F81C0D026842F0010202607A
:10153000656484F84110256384F84250002070BD32
:10154000008000022DE9FF4F83B0044690F841006F
:101550009A469346DDE91087DDF84890202874D13B
:101560005FEA080014D09FB194F8400001286CD0C5
:10157000012084F84000FFF72DFF012206461923C1
:101580000090D103204601F05DFC002871D103E0FA
:101590004FF4007060646CE00025C4F824802221C0
:1015A00084F84110402084F8420065646785534602
:1015B00065635A4604992046CDE9009601F0F8FB90
:1015C00010B184F8405054E0618DFF2734484FF04B
:1015D0008078FF294FF0007A04D927853A464346A0
:1015E000009005E0618D53462185009094F82820F5
:1015F0002046049901F00EFC00224B4604212046AF
:10160000009601F01FFCA0BB2068616A406A087068
:10161000606A401C6062208D401E81B22185608D11
:10162000401E6085608DD8B1D1B900224B46802123
:101630002046009601F006FCD8B9608DFF2805D938
:1016400027853A464346009506E026E0608D5346DE
:101650002085009594F828202046049901F0DAFBB3
:10166000608D0028C8D132464946204601F017FC5B
:1016700018B1012007B0BDE8F08F21682020094A89
:10168000C86121684B6813404B6084F8410084F8BE
:101690004250002084F84050ECE70220EAE70000C6
:1016A0000024008000E800FE10B5A8B00446142114
:1016B00021A8FEF705FF84216846FEF701FF1949BE
:1016C000206888422CD14FF4803000900024684676
:1016D0001B9400F01FFA08B1FFF7EBF812480168FD
:1016E00041F08001016000680DF1840C122100F0CE
:1016F000800026904FF4C07004238CE8130003226E
:101700000A48CDE9242321A9FFF73AFD0648103005
:10171000016841F400010160006800F400002690B7
:1017200028B010BD005C004030380240001C024070
:1017300002488168027811448160704714000020DB
:10174000032010B500F09EF90F2000F005F800F01E
:1017500053F9002010BD000070B50D4D04464FF444
:101760007A700C4A29781268B0FBF1F0B2FBF0F005
:1017700000F0DAFE48B9102C07D200222146501E94
:1017800000F060F900206C6070BD012070BD0000A9
:1017900014000020200000202DE9F041044690F8BC
:1017A000A00016460F4601281DD0012584F8A05040
:1017B000022084F8A10006EB860000EBC60034226C
:1017C00004EB80003830FEF749FE324639462046A9
:1017D00001F0B5FB216800204D6284F8A15084F827
:1017E000A000BDE8F0810220FBE700002DE9F041F8
:1017F000040004D094F8A100002518B107E00120EE
:10180000BDE8F081204684F8A05000F06BF8344821
:10181000022184F8A110012202CC8B6923F07043CD
:101820008B6194E84A001943E3681E4354F8043D71
:1018300031439E693143996121688B6803408B6015
:101840002168A68AA7698B683B4343EA06438B60FD
:101850002168CB680340CB602168A38B276ACE68E0
:101860003E4346EA0346CE6021680B6903400B61A4
:101870002368A68CA76A1969394341EA06411961B0
:1018800021684B6903404B612068A38D266B416939
:10189000314341EA03414161236894F8351094F8DB
:1018A0003600DE6A000406F07F46DE62236840EA06
:1018B000012094F83460D96A31430143D962206829
:1018C000416B41F0060141632068816941F00101EB
:1018D0008161C4F8A45084F8A120002090E70000A2
:1018E00000F800F070B5A8B00446142121A8FEF756
:1018F000E7FD84216846FEF7E3FD39492068884208
:101900006BD10225082000900024C82146036846B8
:101910000522CDE905150123CDE90724CDE90A36D5
:1019200000F0F8F808B1FEF7C4FF2E48016841F056
:1019300080610160006800F08060269029481438BA
:10194000016841F480610160016801F480612691C1
:10195000016841F040010160016801F040012691F9
:10196000016841F480710160016801F48071269181
:10197000016841F40071016000680E26CDE922542F
:1019800000F400702690F7202190174821A9CDE996
:101990002446FFF7F5FB09214FF4805021901348AE
:1019A000CDE92441CDE9225421A9FFF7E9FB4FF409
:1019B0008C4021900E4821A9CDE92254CDE924463E
:1019C000FFF7DEFB48F67C6021900A4821A9CDE9AB
:1019D0002254CDE92446FFF7D3FB28B070BD0000A8
:1019E00000680140443802400028024000180240CC
:1019F00000200240002402400A4808B5016841F076
:101A000080510160006800F0805000900548001D82
:101A1000016841F480410160006800F4804000905A
:101A200008BD000040380240002809DB410900F0F1
:101A30001F028900012001F1E0219040C1F800015E
:101A4000704700000E4BF0B41B680D46C3F3022331
:101A5000C3F10706042E00D90426191D072901D257
:101A6000002300E0DB1E012404FA06F19C40491E1D
:101A70002940641E994014402143F0BC01F0CABFC4
:101A80000CED00E0064900F0070210B54FF6FF0428
:101A90000868044B204040EA02201843086010BD4B
:101AA0000CED00E00000FA051848F8B5016841F0B7
:101AB000805101600068164C00F080500090206852
:101AC00040F480302060FFF785FC4FF47A760546BD
:101AD00005E000BFFFF77EFC401BB0420FD86068F6
:101AE000C003F7D5206840F400302060FFF772FC97
:101AF000054606E0FFF76EFC401BB04201D903200B
:101B0000F8BD60688003F5D50020F8BD403802407C
:101B1000007000402DE9F84F04460078DFF8249467
:101B20004FF000063746C0070ED0D9F8001021F458
:101B30000001C9F80010D9F80010626B1143C9F810
:101B40000010606B00B90126FE4D2068843500034B
:101B50000ED5E16B286820F4401008432860E06B44
:101B6000B0F5801F01D010B102E0012600E001278E
:101B700020684FF4800BC0020CD5216C286820F43B
:101B8000400008432860206C584501D1012601E03F
:101B900000B901272068C10100D50126800666D55D
:101BA000E8483830016841F0805101600068DFF892
:101BB00098A300F080500090DAF8001041F4807192
:101BC000CAF80010FFF706FC804605E0FFF702FCAC
:101BD000A0EB080064287DD8DAF80000C005F5D530
:101BE000DFF8608308F16808D8F8000010F440704E
:101BF0002AD0218E01F44071814225D0D8F80010FE
:101C0000D8F8002021F4407142F48032C8F8002056
:101C1000D8F8002022F48032C8F80020C8F800105C
:101C2000D8F80000C0070FD0FFF7D4FB824607E0CA
:101C3000FFF7D0FBA0EB0A0141F288308142CAD8FD
:101C4000D8F800008007F3D5206BC0F301210329E9
:101C50007ED0D9F8001021F4F811C9F80010228EB6
:101C6000D8F80010C2F30B021143C8F80010207816
:101C7000C00607D5286820F0807028602868A16B0E
:101C8000084328602188AF488830490405D5626E32
:101C9000016821F44031114301602188090405D510
:101CA000A26E016821F44021114301602168C9033B
:101CB00005D5E26E016821F44011114301602168ED
:101CC000890305D5226F016821F4400111430160A9
:101CD000217800E016E1490605D5626C016821F023
:101CE0000301114301602178090605D5A26C016842
:101CF00021F00C01114301602188C90505D5E26C72
:101D0000016821F03001114301602188890505D562
:101D1000226D016821F0C00111430160218849054D
:101D200005D5626D016821F440711143016021887D
:101D3000090505D5A26D016821F4406111430160D8
:101D40002188C90407D5E26D016821F4405100E003
:101D50004AE0114301602188890405D5226E01689B
:101D600021F44041114301602168490205D5A26F69
:101D7000016821F080611143016021684FF0006A21
:101D8000890209D5E26F016821F000611143016009
:101D9000E16F514500D1012721680A0700D50127CD
:101DA000490305D5626F016821F04071114301605C
:101DB0002168090206D5D4F88020016821F08051FD
:101DC00011430160DFF88491012E02D02068800168
:101DD0007ED5D9F800004E4620F08060C9F800009A
:101DE000FFF7F8FA80460FE0594AD9F80030104062
:101DF00023F4F8120243C9F8002030E7FFF7EAFAAB
:101E0000A0EB080064287DD830680001F6D4217862
:101E10004C487C30C90712D0616B81B9237A626863
:101E20000168D0F800C09201C1F3014142EA0142C9
:101E3000CCF3036142EA016141EA03710160216868
:101E40000A0303D5E26BB2F5801F04D0C9021AD58C
:101E5000216C594517D16368016894F80CC0026879
:101E60009B01C1F3014143EA0141C2F3027241EA1D
:101E70000C6141EA027101602968626A21F01F0168
:101E8000521E114329602168C90110D5238A626856
:101E90000168D0F800C09201C1F3036142EA034235
:101EA00042EA0162CCF3027142EA017101602168E9
:101EB00089010CD56168228A237B94F808C08901C6
:101EC00041EA024141EA036141EA0C71016000E02C
:101ED00011E03168B04641F080613160FFF77AFA75
:101EE000064604E0FFF776FA801B64280AD8D8F883
:101EF00000000001F6D56FB3D9F800004E4620F07F
:101F0000805000E07BE0C9F80000FFF763FA074665
:101F100005E000BFFFF75EFAC01B64286FD8306889
:101F2000C0438000F6D50748216880300A0301D5F8
:101F3000E26B1AB1C90225D5216C19BB636901682E
:101F4000277E08E008380240007000400038024058
:101F5000FFFCFF0F5AE00268C1F301419B0143EA15
:101F60000143C2F3027143EA076242EA0171016070
:101F700029686FF0FF03A26A21F4F85103EB0222F3
:101F8000114329602168890212D5E16F51450FD1B3
:101F9000238C6269016807689201C1F3036142EA18
:101FA000034242EA0162C7F3027142EA0171016031
:101FB0002178090716D561690268D0F800C08B0145
:101FC000277FC2F30362CCF3014143EA014141EAB6
:101FD000026141EA077101602868E16A20F440303B
:101FE00008432860306840F080503060FFF7F2F915
:101FF000044607E0FFF7EEF9001B642802D903202E
:10200000BDE8F88F3068C0438000F3D40020F7E7C4
:102010002DE9F04705000F4663D0444E306800F0CC
:102020000F00B84209D2306820F00F00384330600A
:10203000306800F00F00B84253D128683C4C81074B
:1020400012D5400703D5206840F4E050206028787E
:10205000000703D5206840F460402060A96820682C
:1020600020F0F000084320602878C0072AD03049CB
:1020700068680839012810D00968022810D089073B
:1020800000292EDA216821F0030101432160FFF7C6
:10209000A1F9804641F288390DE009688903EFE72C
:1020A0008901EDE7FFF796F9A0EB0801494502D950
:1020B0000320BDE8F0876868216801F00C01B1EBEE
:1020C000800FEFD1306800F00F00B8420BD93068B4
:1020D00020F00F0038433060306800F00F00B84245
:1020E00001D00120E5E72878400705D5E968206898
:1020F00020F4E050084320602878000706D52869BE
:10210000216821F4604141EAC000206000F018F825
:102110002168084AC1F30311515CC84006490860B0
:1021200006480068FFF718FB0020C2E7003C0240A9
:10213000083802407A85020820000020180000209C
:10214000154910B51548096811F00C0213D014494F
:10215000042A0FD0082A0ED10F4C241F22682368AE
:1021600002F03F025B0207D52068C0F38810A0FB95
:10217000010106E0084610BD2168C1F38811A1FBEA
:1021800000010023FEF7B0F82168C1F30141491CAA
:102190004900B0FBF1F010BD083802400024F40003
:1021A00040787D012DE9F84F04004FF000076ED014
:1021B0002078DFF868A3AAF10408C007A8F1040595
:1021C0004CD0DAF800105046C1F38101012908D043
:1021D0000068C0F3810002280AD1D8F8000040024C
:1021E00006D52868800339D560680028DFD035E03F
:1021F0006068B0F5803F0BD010B1B0F5A02F11D0C2
:10220000286820F480302860286820F4802002E0CC
:10221000286840F480302860606890B1FFF7DAF8F1
:1022200006460AE0286840F480202860F0E700BFF6
:10223000FFF7D0F8801B642872D828688003F7D590
:102240000CE0FFF7C7F8064605E000BFFFF7C2F84D
:10225000801B6428F0D828688003F7D42078800792
:1022600042D5DAF80010504611F00C0F08D0006883
:10227000C0F3810002280BD1D8F80000400207D437
:102280002868800718D5E068012800D114E041E1F2
:10229000E0680028286817D040F001002860FFF7A8
:1022A00099F8064605E000BFFFF794F8801B022866
:1022B000C2D828688007F7D52069296821F0F8017D
:1022C00041EAC00028600FE020F001002860FFF71D
:1022D00081F8064605E000BFFFF77CF8801B022866
:1022E0001ED828688007F7D42078000729D58B48A6
:1022F00061696C3000298146016812D041F001010A
:102300000160FFF767F8064605E000BFFFF762F8D7
:10231000801B022804D8D9F800008007F6D510E009
:1023200089E021F001010160FFF754F8064604E05E
:10233000FFF750F8801B02287DD8D9F800008007ED
:10234000F6D4207840076BD5DFF8D09109F1380931
:10235000D9F80000C0000BD4D9F8001041F080512A
:10236000C9F80010D9F80000012700F08050009053
:102370006B480168C90512D40168834641F4807135
:102380000160FFF727F8064605E000BFFFF722F8D7
:10239000801B64284FD8DBF80000C005F6D55F4EDF
:1023A000A068683601280AD008B1052811D0306825
:1023B00020F001003060306820F0040002E0306856
:1023C00040F001003060A068A0B1FFF703F8834639
:1023D0000CE0306840F004003060F0E7FEF7FAFFF0
:1023E000A0EB0B0141F28830814266D8306880074B
:1023F000F4D50EE0FEF7EEFF834607E0FEF7EAFFB6
:10240000A0EB0B0141F28830814256D8306880073A
:10241000F4D42FB1D9F8001021F08051C9F8001080
:10242000A069C8B3DAF80010C1F3810102294BD0CA
:102430000228286800E040E020F08070286003D087
:10244000FEF7C8FF04463BE0FEF7C4FF064604E083
:10245000FEF7C0FF801B02282FD828688001F7D420
:10246000D4E90962D4E907012E4B570894F82C20CF
:10247000084303EB074343EA8611084340EA02603E
:1024800040F00050C8F80000286840F080702860D4
:10249000FEF7A0FF044606E03EE000BFFEF79AFF0D
:1024A000001B022809D828688001F7D534E000BF56
:1024B000FEF790FF001B022802D90320BDE8F88F29
:1024C00028688001F4D427E00128D8F8000021D042
:1024D000E16900F480028A421CD1216A00F03F02C7
:1024E0008A4217D1626A47F6C0710140B1EB821F80
:1024F00010D1A16A4FF0FF3200F4403302EB5101DA
:10250000B3EB014F06D194F82C1000F07060B0EBE3
:10251000016F01D00120D1E70020CFE70838024049
:10252000007000400000FFFF401EB0F1807F10B53A
:1025300001D3012010BD4FF0E02460610F2160172E
:1025400001F068FA0020A0610721216110BD7047E9
:1025500070477047F0B590F83C20012A3BD01F4EE1
:10256000012480F83C40022280F83D2002681C4D86
:102570005368B242D2F808C001D0AA4203D14F68D2
:1025800023F470033B430F6823F070031F4357602D
:102590000268B24213D0B2F1804F10D0114B9A4270
:1025A0000DD0114B9A420AD0104B9A4207D0AA4242
:1025B00005D00F4B9A4202D00E4B9A4204D1896843
:1025C0002CF0800319439160002180F83D4080F891
:1025D0003C100846F0BD0220F0BD000000000140A4
:1025E000000401400004004000080040000C0040CE
:1025F000004001400018004010B5040003D094F8DA
:102600003D0010B107E0012010BD002084F83C001F
:10261000204600F023F8022084F83D002068211DA8
:1026200000F0B4FF012084F8480084F83E0084F8EC
:102630003F0084F8400084F8410084F8420084F8A8
:10264000430084F8440084F8450084F8460084F888
:10265000470084F83D00002010BD000008B5016867
:102660001048B1F1804F0BD00F4A914207D1016859
:1026700041F080010160006800F08000009008BD1A
:10268000016841F00101016000680022012100F0B1
:10269000010000901C20FFF7D5F9BDE808401C2080
:1026A000FFF7C2B940380240001C004070B5044634
:1026B00090F83C000025012817D0334B012684F800
:1026C0003C60022084F83D0022689068184020F4A5
:1026D0007F4090600868502838D00DDC20284FD00B
:1026E00005DC90B3102811D14AE0022070BD3028DB
:1026F00046D040280AD13BE060282FD070280DD06A
:10270000B0F5805F03D0B0F5005F12D0012584F8EA
:102710003D60002084F83C00284670BD4A6820686F
:10272000D1E9021300F0A5FF2068816841F077012C
:1027300009E04A682068D1E9021300F09AFF206896
:10274000816841F480418160E1E719E0CA68496825
:10275000206801F0D5F82068502106E0CA68496871
:10276000206801F0DEF82068602100F08BFFCEE7E2
:10277000CA684968206801F0C3F820684021F4E77E
:10278000226801461046F0E788FFFEFF704770B5EB
:102790000446006800250169C943890715D4C1684A
:1027A000C943890711D4EA1E0261012121772068FB
:1027B00080698007204602D0FFF7E8FF04E000F0C0
:1027C000D1F8204600F093F9257720680169C943C4
:1027D000490717D4C168C943490713D402216FF0D0
:1027E0000402026121772068806910F4407F20464E
:1027F00002D0FFF7CBFF04E000F0B4F8204600F071
:1028000076F9257720680169C943090716D4C1689C
:10281000C943090712D404216FF00802026121772D
:102820002068C0698007204602D0FFF7AFFF04E0B0
:1028300000F098F8204600F05AF9257720680169E1
:10284000C943C90617D4C168C943C90613D40821AE
:102850006FF01002026121772068C06910F4407F98
:10286000204602D0FFF792FF04E000F07BF82046FC
:1028700000F03DF9257720680169C943C90708D1EF
:10288000C168C943C90704D1891E0161204600F00F
:10289000F3F920680169C943090609D4C168C9432D
:1028A000090605D46FF0800101612046FFF750FE54
:1028B00020680169C943C90509D4C168C94309062B
:1028C00005D46FF4807101612046FFF740FE206857
:1028D0000169C943490609D4C168C943490605D4F9
:1028E0006FF040010161204600F0C7F920680169DE
:1028F000C94389060BD4C168C943890607D46FF060
:10290000200101612046BDE87040FFF722BE70BD86
:1029100010B586B0044614216846FDF7D1FD0E4976
:102920002068884216D10D48016841F020010160FD
:1029300000680923022200F02000059000204FF4D7
:10294000807100916946CDE90120CDE90303044877
:10295000FEF716FC06B010BD001C004030380240E7
:1029600000140240704770B5044690F83C00002601
:102970000D4601280BD0012084F83C000C2A4AD0D7
:1029800007DC82B1042A20D0082A06D131E00220D7
:1029900070BD102A53D0142A63D00126002084F879
:1029A0003C00304670BD206800F074FE20688169EC
:1029B00041F0080181612068816921F00401816191
:1029C00020682A698169114311E0206800F09CFEAB
:1029D0002068816941F4006181612068816921F486
:1029E0008061816120682969826942EA01218161EF
:1029F000D4E7206800F0C4FE2068C16941F00801F6
:102A0000C1612068C16921F00401C16120682A699F
:102A1000C169114311E0206800F0EEFE2068C16931
:102A200041F40061C1612068C16921F48061C16124
:102A300020682969C26942EA0121C161AEE72068C4
:102A400000F006FF2068416D41F0080141652068F3
:102A5000416D21F00401416520682A69416D1143EF
:102A600011E0206800F020FF2068416D41F4006112
:102A700041652068416D21F48061416520682969C4
:102A8000426D42EA0121416588E710B5040003D098
:102A900094F83D0010B107E0012010BD002084F83B
:102AA0003C00204600F022F8022084F83D00206817
:102AB000211D00F06BFD012084F8480084F83E00E1
:102AC00084F83F0084F8400084F8410084F8420014
:102AD00084F8430084F8440084F8450084F84600F4
:102AE00084F8470084F83D00002010BD704770470F
:102AF00010B504464FF0020269B1042912D008292A
:102B000017D00C291CD0102921D094F8430001289B
:102B100024D0012010BD94F83E000128F9D184F89A
:102B20003E201DE094F83F000128F2D184F83F20B8
:102B300016E094F840000128EBD184F840200FE023
:102B400094F841000128E4D184F8412008E094F889
:102B500042000128DDD184F8422001E084F84320BE
:102B60000122206800F078FD17492068174A884242
:102B700001D0904203D1436C43F400434364206886
:102B8000884213D0B0F1804F10D0114988420DD047
:102B9000104988420AD01049884207D0904205D097
:102BA0000E49884202D00E49884207D181680D4AF9
:102BB0001140062906D0B1F5803F03D0016841F0ED
:102BC00001010160002010BD00000140000401402F
:102BD0000004004000080040000C0040004001409C
:102BE000001800400700010030B5002204460068CC
:102BF0000D4600F031FD41F211111D4B20688A1085
:102C0000984202D01B4B984209D1036A0B4206D16D
:102C1000036A134203D1436C23F4004343642068E6
:102C2000036A0B4206D1016A114203D1016821F007
:102C3000010101604FF001005DB1042D0CD0082DA1
:102C40000DD00C2D0ED0102D0FD084F84300002095
:102C500030BD84F83E00FAE784F83F00F7E784F8D7
:102C60004000F4E784F84100F1E784F84200EEE721
:102C7000000001400004014070477047FEE7016812
:102C80008A69D243920701D400228A62006881696E
:102C9000C943C90703D0816941F0010181617047CF
:102CA0002DE9F047044600680026894617464FF094
:102CB000200835468169C90641D51021C1612FE040
:102CC000B9F1FF3F2CD0FEF785FBC11B494502D867
:102CD000B9F1000F24D12068426894F8421083694A
:102CE00002F48042DB431B0415D4B2F5804F12D0AE
:102CF000202910D0416841F480414160FEF76AFB11
:102D0000074608E0FEF766FBC01B192803D9012619
:102D100045F0200504E020688069C0438006F1D4B6
:102D200020688069C043800602D5002EC8D003E029
:102D300016B92168C1F81C80012645F004052168F8
:102D40008869C20505D54FF48072CA6145F0010556
:102D5000012641050AD5216880054FF4806245F0BF
:102D60000805CA614FF0010602D40AE0800507D5C4
:102D7000206801264FF4007145F00205C16100E0B2
:102D80008EB12046FFF77BFF20680021074F436884
:102D90003B404360606C2843606484F8418084F861
:102DA000421084F840103046BDE8F08700E800FE8D
:102DB0002DE9F843174604461548DAB2DDE90898CC
:102DC0001E4600900023204600F024F84246494663
:102DD000204600F08BF8B8B9012EFDB208D020686B
:102DE000390A816242464946204600F07FF858B9C8
:102DF00020688562002240214B462046CDF80080A5
:102E000000F020F8002800D00120BDE8F883000081
:102E10000020008070B50068C1F3090141EA024159
:102E2000074D049C19434FF480664268214306EA2B
:102E300054532B439A4321F000410A43426070BD32
:102E4000FF63FF032DE9F0411D4617460E46044679
:102E5000DDF8188008E0681C06D0FEF7BBFAA0EB8E
:102E60000800A8420BD855B12068806936EA0000F6
:102E700013D00020B842EED00020BDE8F081626C93
:102E8000002084F84000202142F02002626484F88F
:102E9000411084F842000120EFE70120EAE770B515
:102EA00016460D4604460DE0324629462046FFF7F9
:102EB000F7FE08B1012070BDFEF78CFA801BA84216
:102EC00007D835B120688069C0438006ECD4002063
:102ED00070BD626C002084F84000202142F0200286
:102EE000626484F8411084F84200E3E770B5164646
:102EF0000D4604460FE0324629462046FFF7D0FE35
:102F000008B1012070BD681C05D0FEF763FA801B74
:102F1000A84207D835B120688069C0438007EAD449
:102F2000002070BD626C002084F84000202142F037
:102F30002002626484F8411084F84200E1E72DE940
:102F4000FE4F81460068882493468D888C2204EBCE
:102F5000CB178A46C3689421BE46C459C3F30B43BA
:102F60002B4404F470441F04019702EBCB1240F889
:102F70000E4001EBCB13DAF800709C214FF0AC0C43
:102F800001EBCB1440F2077102910CEBCB11D9F895
:102F900000C098250020CDF800C0A02605EBCB1579
:102FA000DCF80CC006EBCB16CCF30B4C0CF1010C8F
:102FB00007EB0C08DDF800C0019F48EA07084CF851
:102FC0000E80D9F80070BAF80CC0B846FF68C7F395
:102FD0000A0767444FEA074E58F8027007F4704C2E
:102FE00048F802C0D9F800C0DAF80870DCF80C80A4
:102FF000C8F30A0808F10108B84448EA0E084CF87A
:103000000280D9F80020D75827F00707D750D9F801
:103010000070DAF81020FA509AF831209AF8183037
:103020004FEA022C9AF83220120442EA0362D9F8DD
:1030300000301F5918519AF8303043EA0C031343FB
:10304000D9F800201351D9F80020535923F0FF0379
:103050005351D9F80020DAF814305351D9F8002030
:103060009359029CA3439351D9F80030DAE907241D
:1030700022439A51D9F8002053585050D9F80020D3
:10308000DAF824005050DAF81000C8B301283AD01A
:1030900004283AD0022838D0032836D0072834D064
:1030A0000120D9F80030B02505EBCB11B4228424DF
:1030B0005D5802EBCB1205F0E0255D50DAE90035F2
:1030C00004EBCB14EB1ABAF8285043434543D9F824
:1030D0000000DB1C43EA05434350D9F80000815847
:1030E0006FF30A018150D9F80000DAF82C108150F2
:1030F000D9F80000015941F001010151BDE8FE8FEE
:10310000FFE70420CDE70320CBE70220C9E700005A
:103110007FB51C4800241A4A012500940226019418
:1031200029040294039402600A0341604FF0407145
:1031300084600561846180F82040C661C460C0E994
:103140000A1280F830504561FDF75DFD08B1FDF7CA
:10315000B0FB0C486946CDE900450294FDF7ACFB95
:1031600008B1FDF7A6FB08206946CDE90006054831
:10317000FDF7A2FB002801D0FDF79BFB7FBD0000FF
:103180000022014094090420094808B5016841F46F
:103190008001016000680022114600F48000009068
:1031A0003820FEF74FFCBDE808403820FEF73CBC55
:1031B000303802402DE9F04186B014216846FDF711
:1031C0007FF93248016841F002010160016801F0B5
:1031D00002010591016841F001010160016801F0FF
:1031E00001010591016841F480610160016801F409
:1031F00080610591016841F040010160016801F0C2
:1032000040010591016841F480710160016801F499
:1032100080710591016841F400710160016801F459
:1032200000710591016841F080010160016801F0C1
:1032300080010591016841F02001016000680122D0
:10324000134F082100F0200005903846FEF7BCF827
:103250000122DFF84080160340463146FEF7B4F8FD
:1032600000246946012508200090CDE90154384624
:103270000394FDF785FF00966946CDE90154404669
:103280000394FDF77DFF06B0BDE8F08130380240C1
:1032900000280240002002401348002110B5114CC4
:1032A0000123124A0460C0E90121C0E903314161F0
:1032B0008161C1610162FEF7E9F808B1FDF7F9FA31
:1032C00009480021FEF78CF808B1FDF7F2FA06482C
:1032D0000021FEF7B1F8002803D0BDE81040FDF74B
:1032E000E8BA10BD005C00403C0A0420684740205A
:1032F000F0B58DB034216846FDF7E2F82A48002485
:10330000284B092100F1180E40F20B252B2240F228
:10331000251603601523446040F21327846040F2B1
:10332000291CC460046144618EE8EE1080F83440CA
:1033300080F8354080F83640FEF758FA08B1FDF7BE
:10334000B8FA4FF4F070194D4FF4887102270497C2
:10335000CDE90040CDE90A0107A87A020523CDE9AD
:10336000024180E82C00FF260F48CDE905648DF866
:10337000304000228DF8314069468DF83240FEF72A
:103380000BFA08B1FDF795FA094800220990694641
:103390000548FEF701FA002801D0FDF78AFA0DB0C2
:1033A000F0BD000000680140900A042000040120E4
:1033B000A402002010B588B01C216846FDF780F8F3
:1033C00015486321002440F23742124BC0E9024104
:1033D00004618461C0E90032FFF70EF908B1FDF71E
:1033E00068FA0D48FFF751FB08B1FDF762FA60205B
:1033F00032218DE813000848002269460494FFF743
:10340000B2FA08B1FDF755FA0348FFF781FA08B0A0
:1034100010BD0000001C0040840B042010B58EB0CD
:1034200000241C21009407A801940294039404949E
:1034300005940694FDF744F81D48232140F25722D5
:103440004FF08043C0E9024104618461C0E9003269
:10345000FFF7D2F808B1FDF72CFA4FF48050009036
:1034600013486946FFF722F908B1FDF722FA104820
:10347000FFF70BFB08B1FDF71CFA0D4804A90494F3
:103480000694FFF767F808B1FDF713FA07AA602062
:10349000012182E813000648042207A90B94FFF7D4
:1034A00062FA002801D0FDF704FA0EB010BD00004A
:1034B000380B0420FEE7FEE770477047704710B5F1
:1034C000FEF736F9BDE8104001201EF0A7BD000050
:1034D00030B593B030216846FCF7F2FF14210CA8F8
:1034E000FCF7EEFF2048016841F080510160006860
:1034F00000F0805011901D48016841F44041016086
:10350000006802241923089300F440401190012020
:103510004FF4D87582050104CDE90642CDE909547E
:103520000B94CDE900016846FEF73CFE08B172B687
:10353000FEE7FEF7B9FA08B172B6FEE70EAD00215C
:103540004FF4A0524FF4805385E80E000F20CDE9D0
:103550000C0407210CA8FEF75BFD002801D072B611
:10356000FEE713B030BD000040380240007000405C
:103570000248016841F470010160704788ED00E085
:103580000148FFF704B90000380B0420F0B5274BC1
:103590004FF0804E264D02689842264E264F274C0B
:1035A00009D0704507D0A84205D0B04203D0B84238
:1035B00001D0A04205D1D1F804C022F070024CEA3B
:1035C000020298421BD0704519D0A84217D0B042D1
:1035D00015D0B84213D0A04211D0194DA8420ED038
:1035E000184DA8420BD0184DA84208D0174DA8423C
:1035F00005D0174DA84202D0164DA84203D1CD6880
:1036000022F440722A434D6922F080022A4302606C
:1036100098428A68C2620A68826201D0A04201D1DF
:103620000969016301214161F0BD00000000014012
:103630000004004000080040000C0040000401406D
:103640000040014000440140004801400018004093
:10365000001C00400020004010B5046A012301F066
:103660001F018B409C4304628A40016A114301623E
:1036700010BD42EA032283680A4323F47F410A43D0
:1036800082607047826822F070020A4342F00701AC
:1036900081607047F0B5026ADFF860C0184F22F011
:1036A0000102DFF860E00262066A4268836926F080
:1036B00002060D68B8428C6803EA0C0323F003038A
:1036C00044EA060445EA030501D0704505D1CB68FC
:1036D00024F00804234323F00404B84201D07045C9
:1036E00005D122F44076D1E9053233431A434260D2
:1036F0008561496841630462F0BD00008FFFFEFFF1
:103700000000014000040140F0B5026A194E1A4C55
:1037100022F01002DFF864E00262056A4368826901
:1037200025F02005D1F808C0A0420F6802EA060281
:1037300022F4407245EA0C1542EA072201D0704596
:1037400006D1CE6825F0800545EA061525F040052E
:10375000A04201D0704507D1D1E9054623F440636A
:1037600043EA840343EA86034360826149688163D4
:103770000562F0BDFF8FFFFE000001400004014024
:10378000F0B5026A194F1A4E22F48072DFF864E035
:103790000262056A4368C26925F40075D1F808C061
:1037A000B0420C6802EA070222F0030245EA0C2547
:1037B00044EA020401D0704506D1CF6825F40062C6
:1037C00042EA072222F48065B04201D0704507D159
:1037D00023F44052D1E9053642EA031242EA0613C5
:1037E0004360C4614968C1630562F0BD8FFFFEFF9D
:1037F0000000014000040140F0B5026A124B114F75
:1038000022F4805298420262046A4268C36924F436
:1038100000548E680D6803EA070323F4407344EAFA
:10382000063443EA052302D0084DA84204D14D696D
:1038300022F4804242EA85124260C3614968016411
:103840000462F0BDFF8FFFFE000001400004014054
:10385000F0B5026ADFF844C022F480320262056AE1
:103860004268446D25F400350E8960450C4F0B68A5
:1038700004EA070445EA064543EA040302D0094C7A
:10388000A04204D14C6922F4803242EA0422426010
:103890004365496881650562F0BD00000000014094
:1038A0008FFFFEFF00040140F0B5026ADFF844C05C
:1038B00022F480120262046A4268436D24F4001408
:1038C0000E8960450C4F0D6803EA070344EA06546D
:1038D00043EA052302D0094DA84204D14D6922F4E0
:1038E000802242EA8522426043654968C1650462DC
:1038F000F0BD000000000140FF8FFFFE000401400A
:1039000010B5036A046A23F00A0324F00104046278
:1039100084690B4324F0F00141EA021181610362E2
:1039200010BD10B5036A23F0100303628369046AB3
:1039300023F4704324F0A00443EA0232826144EA93
:103940000111016210BD0000024801680520886273
:1039500070470000380B0420024801681D2088626F
:1039600070470000380B04200248016840F25720DD
:1039700088627047380B0420024801683B20886247
:1039800070470000380B04200248016840F22B10F9
:1039900088627047380B0420FEE700000748016882
:1039A000012907D001210160054840F23742006833
:1039B0008262704700210160704700001000002003
:1039C000840B042007480168012907D00121016008
:1039D000054845F25F42006882627047002101603D
:1039E0007047000008000020840B0420074801688D
:1039F000012907D001210160054840F66F020068E7
:103A00008262704700210160704700000C000020B6
:103A1000840B0420090700284FEA116104DB00F140
:103A2000E02080F80014704700F00F0000F1E02063
:103A300080F8141D704770B5002504466FF02F06FE
:103A400008E0206805EB8502411C216006EB42027C
:103A5000007885182068007800F004F80028F0D17C
:103A6000284670BD3038092801D801207047002051
:103A7000704700000848442110B500F0BFFD07481A
:103A800000221E211EF024FB054CA06001F072FEF6
:103A90000020207010BD00004C0D04202D5800089F
:103AA0000002002070B5B1F90040B2F900309C422C
:103AB00000DD23460380B1F90250B2F90240A5426D
:103AC00000DD2C464480B1F90460B2F90450AE42E6
:103AD00000DA35468580B1F90610B2F90620914228
:103AE00000DB1146C180AB424FF0010001DC8C428B
:103AF00000DD002070BDF8B50D46B1F90010044698
:103B0000B0F900001646884247DBB4F90210B5F957
:103B10000220914241DBB4F90410B5F9042091422E
:103B20003BDCB4F90610B5F90620914235DC96B3BA
:103B3000ADF80000324660886946ADF802002846BC
:103B400000F099F8002827D0A0883246ADF8000090
:103B500069466088ADF80200284600F08CF800281D
:103B60001AD020883246ADF800006946E088ADF8EA
:103B70000200284600F07FF800280DD0A0883246C9
:103B8000ADF800006946E088ADF80200284600F074
:103B900072F8002800D00120F8BD0020F8BDB0F96F
:103BA0000020B1F904309A4213DCB0F90420B1F9D5
:103BB00000309A420DDBB0F90220B1F906309A428A
:103BC00007DCB0F90600B1F90210884201DB0120E0
:103BD000704700207047F8B50D46B1F90010044653
:103BE000B0F904001646884243DBB4F90600B5F983
:103BF000021088423DDBB4F90000B5F90410884298
:103C000037DCB4F90210B5F90620914231DC76B305
:103C1000ADF80000324660886946ADF802002846DB
:103C200000F029F818BBA0883246ADF800006946BC
:103C30006088ADF80200284600F01DF8B8B9208869
:103C40003246ADF800006946E088ADF8020028462B
:103C500000F011F858B9A0883246ADF80000694666
:103C6000E088ADF80200284600F005F808B1002011
:103C7000F8BD0120F8BD2DE9FC410546B1F9000071
:103C80000E461446B5F9001088423ADBB5F90470C7
:103C9000B84236DCB6F90200B5F90230984230DBA2
:103CA000B5F9062090422CDC002C75DD781AD21A6A
:103CB000401C521C00B212B200EBD07002EBD27268
:103CC00040105210904200DB1046844200DD044652
:103CD000ADF800102888002231462044ADF80400D9
:103CE0006888ADF8020068882044ADF80600684690
:103CF000FFF7C1FF40B1BDF804002044ADF8040057
:103D00003FE00020BDE8FC81E88800223146001B2E
:103D1000ADF80200E888ADF806006846FFF7ABFF93
:103D200028B1BDF804002044ADF8040011E0A888D3
:103D300000223146001BADF80000A888ADF8040051
:103D40006846FFF798FF50B1BDF80000001BADF8C2
:103D50000000BDF80200001BADF8020016E0688804
:103D60000022ADF80200314668882044ADF8060014
:103D70006846FFF780FF70B1BDF80000001BADF88A
:103D80000000BDF806002044ADF806003146684644
:103D90001BF066FDB6E7FFE70120B3E710B5B1F908
:103DA0000040B2F900309C4200DA23460380B1F9AA
:103DB0000240B2F902309C4200DA23464380B1F956
:103DC0000440B2F904309C4200DD23468380B1F9FF
:103DD0000610B2F90620914200DC1146C18010BDE8
:103DE000FEB507461EF010F9354C00250646009535
:103DF00037B1F868606038461EF038FA606802E053
:103E000010F0D2FE606000691BF02CFC6068406915
:103E100008B11BF027FC6068C0691BF023FC6068D8
:103E2000006A1BF01FFC60680169E1B31BF0C2FD72
:103E30001FF058FF6068B0F8501199B30168097C11
:103E4000890715D510F00EFF401E07B2606810F00C
:103E5000C3FE401E009703B2002201A811460EF0D7
:103E60000CFC60680168CA6B01A9516004F026FA75
:103E700060684FF48071303017F0EAF860682021F4
:103E800000F5987017F0E4F86068A0F850513046DB
:103E90001EF0B4F8009060680068436A13B12268AD
:103EA0000099984700E007E016F060FF00F036F850
:103EB000BDE8FE4000F006B8A0F85051FEBD00007D
:103EC000C000002070B50A4D5FF00004C4EBC406CA
:103ED00055F8260008B116F0BDFF1C2105EB860041
:103EE00017F0B6F8641CE4B2042CEFD370BD0000E8
:103EF000280E0420084949680AE04A68824202D034
:103F00000A68824203D10A7E42F001020A764969B8
:103F10000029F2D170470000940000207047000093
:103F20000148042100F06ABB400D04200148202113
:103F300000F064BB580D04202DE9FF411D0004462C
:103F40004FF00000DDE90A6702D1B6F5807F2BD083
:103F500003903B4601900290ADF80C10009068462B
:103F6000ADF804102946ADF80A20ADF80E2032460F
:103F70001BF0DCFB01A83B46324629461BF0D6FB72
:103F800002A83B46324629461BF0D0FB03A83B461D
:103F9000324629461BF0CAFBBDF90030BDF90400CA
:103FA000834209DA1D4608E0491EA180521EE280C4
:103FB00020806080BDE8FF810546BDF90820BDF97D
:103FC0000C108A4201DA164600E00E46B54203DACA
:103FD000834206DA184604E08A4201DA104600E01D
:103FE0000846801E2080BDF90030BDF904209342B0
:103FF00001DD1D4600E01546BDF90800BDF90C10B5
:10400000884201DD064600E00E46B54205DD9342DA
:1040100001DD194604E0114602E0884200DD014658
:10402000891CA180BDF90230BDF90620934201DA56
:104030001D4600E01546BDF90A00BDF90E10884284
:1040400001DA064600E00E46B54205DA934201DA8F
:10405000194604E0114602E0884200DA0146891E52
:104060006180BDF90230BDF90620934201DD1D4695
:1040700000E01546BDF90A00BDF90E10884201DDC9
:10408000064600E00E46B54205DD934201DD1946C5
:1040900004E0114602E0884200DD0146891CE1800F
:1040A00088E700002DE9F041124C15460E46074600
:1040B0001DF0AAFF80462B4632463946204614F0B2
:1040C00059FF20B1E1690020A06251B110E02C211C
:1040D000204616F0BDFF4FF00040A0620020BDE872
:1040E000F08140461DF08AFFE06108B90120E061DF
:1040F0002046F4E77C0D04200848142110B500F098
:104100007DFA14F0FDFE40B10549016005494160AA
:10411000054981600549C16010BDFEE7640D0420BA
:1041200021890108A18C01081D8E0108ED88010874
:1041300070B50D4604461021284616F089FF206808
:104140000078012804D0022807D0042807D008E00E
:10415000208A2880608A688003E0E06800E00A2006
:10416000686020684268002A03D02946BDE8704094
:10417000104770BDFEB5866A0446BEB9A08A218A82
:10418000E28A638A0844A0822046D118E1820AF0BC
:10419000DEFA06007BD020460CF07EFD0022304681
:1041A000092113F011FE6078800770D4208A10B9BD
:1041B000608A00286BD00025ADF80450ADF8085097
:1041C00094F83C0000F00F000328304616D018F099
:1041D000D5FC0746304618F08BFB03463A460C20C8
:1041E0000090B4F91210304609F060FEADF80800F6
:1041F000304618F0CFFBC10712D017E018F052FC80
:104200000746304618F0EEFB02463B46032000907E
:10421000B4F91010304609F049FEADF80400E7E7A4
:10422000BDF90410002901DDADF80450810705D463
:10423000BDF90410002901DAADF80450410705D496
:10424000BDF90810002901DDADF80850000705D4BC
:10425000BDF90800002801DAADF8085002AA01A94A
:10426000204620F0FBFABDF908203046BDF90410C5
:1042700000F060FA6078800709D4A08ABDF80420B5
:10428000E18A1044A082BDF808000844E082FEBD27
:104290002DE9FC5F0446806A5FEA000B71D094F858
:1042A0003C0000076DD015F0F9F80190402100683E
:1042B000457E584619F030FC4FF0000818B9A4F8B4
:1042C0001A80A4F81880584618F04AFC82465846CE
:1042D00018F04DFC064694F83C004FF0640900F0DD
:1042E0000F000C2802D003284CD09AE0A4F81880C4
:1042F00056B1B4F91A50002715F0D0F801684846B5
:10430000497EC1F1640122E0618BC5F1640211FBB9
:1043100002F191FBF9F06083584618F0E9FA05467E
:10432000584618F02BFC02462B460C200090B4F99E
:104330001A10584609F0BAFD0023024660831EE0B9
:1043400011FB05F27B1992FBF0F21FB215B2002DA2
:10435000F6D1ADF8007000216A462046A4F81A8014
:1043600020F07CFA41F6FF72BDF900305142584608
:104370000AF052FBBDF800100123084402B20021EC
:104380004CE09BE0BAF1000FA4F81A800AD0B4F90F
:104390001850002715F082F800684946407EC0F1A9
:1043A000640022E0218BC5F1640211FB02F191FB54
:1043B000F9F02083584618F015FB0546584618F0CA
:1043C00071FB03462A4603200090B4F918105846A2
:1043D00009F06CFD0023014620831EE010FB05F26E
:1043E0007B1992FBF1F21FB215B2002DF6D1ADF898
:1043F0000070002269462046A4F8188020F02EFAAA
:1044000041F6FF72BDF90030514258460AF07CFA7D
:10441000BDF800100123084401B2002258461AF0EA
:1044200091FC208B002849D1608B002846D1C6B969
:10443000584618F0A3FB0546584618F059FA002DC7
:1044400006DC00280DDD002D02DA01232A4604E0F7
:10445000002806DA0123404202B2584600211AF031
:1044600071FCBAF1000F19D1584618F0BBFA054695
:10447000584618F017FB002D07DC00280EDD002D34
:1044800003DA01232946002205E0002806DA012389
:104490000022404201B258461AF054FC019A0A2107
:1044A000584613F091FC6078800707D494F83C10CC
:1044B000C4F8288021F00F0184F83C10BDE8FC9F6F
:1044C0007FB504000E4603D110F06EFB04002ED021
:1044D00010F0DEFB00282AD094F82800400726D4EC
:1044E0004FF0000526B3ADF800502046ADF802505D
:1044F00010F072FB401EADF80400204610F0B2FB35
:10450000401E6A463146ADF8060002A8FFF7CAFA17
:1045100000280CD02068017C89070CD5DDE9001249
:1045200060680123A4F85031C4E90C1280BB7FBD40
:10453000A4F850517FBD82690AB102A990470026B4
:104540000BE000BF04EBC6010022303102A8FFF7E8
:10455000D2FA0028EED1761CB6B2B4F85001B042BF
:10456000F0D880B2202804D204EBC000303002A979
:1045700004E004F130006946A4F850510DF0C8FF82
:10458000B4F850116068491CA4F850110028D1D02B
:104590001DF078FE7FBD70B5054600F012F80446A8
:1045A0000CE02146284600F01EF806462146284623
:1045B00000F071F8204616F04DFC3446002CF0D186
:1045C00070BD002800D0406870470022034600B547
:1045D000FFF7F7FF03E0521C184600F004F8010053
:1045E000F9D1104600BD0068091D405870470068A9
:1045F00040587047002800D0806870470022426011
:10460000C91C826021F003010160704770B5044647
:104610000068083016F092FB050013D00022014616
:1046200020461EF06FFF6268294620461EF064FF98
:10463000616819B12A4620461EF064FFA0686560D3
:1046400000B9A560284670BD70B504460068083002
:1046500016F074FB050013D00022014620461EF020
:104660004BFFA268294620461EF04CFFA16819B1F5
:104670002A4620461EF040FF6068A56000B96560CC
:10468000284670BD28B1416809B9806808B100208A
:1046900070470120704770B504000ED0FFF791FFFE
:1046A00088424FF00002204608D1FFF79CFF011E10
:1046B000606001D000221EE0A26070BDFFF79AFF8B
:1046C0008842206808440AD10168A16029B12046C7
:1046D000BDE8704000221EF00FBF626070BD05682B
:1046E0002046FFF780FF06460246294620461EF078
:1046F00003FF2A4631462046BDE870401EF002BF47
:1047000010B50446006882680AB1214690472068C7
:104710000068002801D02060F5E710BD80680028FF
:1047200001D0B0F9160070478068002801D0807E63
:104730008009704770B516460C46054651EA0600DA
:104740001AD0284617F0D4F9A86801233246018A06
:1047500021440182A868418A314441822146284689
:1047600019F054FD002228460B2113F02DFB0128DF
:1047700003D1284619F0A4FC012070BD77B50500CF
:104780000E4681B017D0612218F0C2FF040012D08B
:10479000206880B162222846314618F0B9FF10F037
:1047A000FF0208D023682046039998470090BDF87F
:1047B0000000ADF80C00039804B070BD2DE9F0477F
:1047C00092B00746408C994690468A461A9E40F021
:1047D0000400788438463A84328918F099FFA7F8A3
:1047E0002090054632895146384618F091FF04461C
:1047F000788CA54220F00400788403D12904B1EB21
:10480000044F68D0A7F8208051463289384618F006
:104810007FFF0546804651463846A7F820900BF0AA
:10482000CFFA00682A4631891CF04EFB30890B28EC
:1048300023D147F6FF794D4501D04C451DD138466F
:1048400019F021F900EBD0704510384618F003F844
:1048500000EBD0704010C84506D1691C431C99423A
:1048600000DA00E0194688464C4506D1691C421C16
:10487000914201DA6C1C00E014461948FFF7C6FEAD
:1048800005002BD02F60C5E903843089A8806846D5
:10489000C5F808A00DF04CF91248FF21CDE90050F1
:1048A000114802901148039000200890CDE90901B9
:1048B00030880B9070889DF8421040420C90F06850
:1048C0000790002060F300018DF8421030690690D7
:1048D00068460DF0A1F912B0BDE8F087FEE70000D0
:1048E000700D042011720208F5730208517302085A
:1048F00001481421FFF782BE700D04202DE9F84F06
:10490000042790460025894606462C46E5E000BF70
:10491000F16807EBC400085882017AD480B230EA0B
:10492000090211D05FF0000230EA08000ED000202A
:1049300082426ED051F834A010216A4650461CF0D5
:1049400031F8002871D103E00122EDE70120EFE703
:1049500011216A4650461CF025F8002865D1122125
:104960006A4650461CF01EF800285ED113216A46A4
:1049700050461CF017F8002857D115216A465046BA
:104980001CF010F8002850D114216A4650461CF043
:1049900009F8E8BB0A216A4650461CF003F8B8BB88
:1049A0006A216A4650461BF0FDFF88BB6B216A46B0
:1049B00050461BF0F7FF58BB01216A4650461BF0DA
:1049C000F1FF28BB04216A4650461BF0EBFFF8B903
:1049D00002216A4650461BF0E5FFC8B903216A462A
:1049E00050461BF0DFFF98B905216A4650461BF080
:1049F000D9FF68B906216A4650461BF0D3FF38B983
:104A000032216A4650461BF0CDFF08B96A4601E0E4
:104A10000BE061E06D2150461BF0C4FF28B96C210A
:104A20006A4650461BF0BEFF10B10320BDE8F88F68
:104A300068216A4650461BF0B5FFE8BB69216A460B
:104A400050461BF0AFFFB8BB6D216A4650461BF0C5
:104A5000A9FF88BB6C216A4650461BF0A3FF58BBD8
:104A600037216A4650461BF09DFF28BB38216A4615
:104A700050461BF097FFF8B935216A4650461BF0A7
:104A800091FFC8B940216A4650461BF08BFF98B988
:104A900045216A4650461BF085FF68B941216A46A8
:104AA00050461BF07FFF38B942216A4650461BF042
:104AB00079FF08B96A4600E00AE0432150461BF03E
:104AC00071FF28B949216A4650461BF06BFF08B1B7
:104AD000022501E005B90125641C708CC0F3C500F6
:104AE000A0423FF615AF2846A0E700000148406805
:104AF00070470000C00000207047C0F30410072872
:104B000000D9072070470000A0F57F41FF3905D08C
:104B1000002804D0702803D208490AE01F207047FB
:104B20000749703880B2096829B1064A5268904234
:104B300001D2085C704700207047000028C50208B9
:104B40002C020020400200200448182110B5FFF775
:104B500055FD03490120087010BD00001C0D042004
:104B6000480200202DE9F041050090460C4615D082
:104B7000FBF755FC0A4F064621462846BA6890477F
:104B8000BA6804462819414690470146701A03E066
:104B90006218AA5C2A55641CA042F9D2BDE8F081D3
:104BA0005C0200202DE9F041094D90460E461C465E
:104BB000074619466A689047306020B12068002196
:104BC0006A6838449047C8F80000BDE8F0810000EA
:104BD0005C0200202DE9F04F87B01F4693468A46BD
:104BE00004464FF00001DDE9105805B1298064B199
:104BF000207800280AD0BAF1000F06D018F0060F6E
:104C00004FF0000615D0002004E0002007B0BDE8FA
:104C1000F08F401C215C0A2904D00D2902D0002904
:104C2000F7D100E0401C002DF0D04FF0FF3129807B
:104C3000ECE75FEA887001D541F6FF7789460846C0
:104C40008DF81410049126E00498CDF8189060B304
:104C5000002351460DF1180C05AACDE90223CDE938
:104C6000008C20443B465A461DF04EFC0699A7EBAB
:104C70000102314417B20EB288B104990144049183
:104C800020780A280BD00D2809D0605C0A280ED0A5
:104C90000D280CD00846205C08B1002FD4DC049805
:104CA00040B105B12E800498B0E70123D1E7481C3C
:104CB0000490F4E7064A04A9204652689047002D64
:104CC0000146F0D00022504613F08FF906B2E9E712
:104CD0005C0200202DE9F0410600174688461ED0F0
:104CE000002F1CD0FBF79BFB04463846FBF797FBD5
:104CF000050014D00B4A2C44414630469268904738
:104D0000411903E0621BB25C3255641EA142F9D91D
:104D100030442A463946BDE8F04116F061B9BDE895
:104D2000F08100005C020020027823294FF000038C
:104D300002D0012A0ED012E032B1012A4FF0000158
:104D400004D0022A04D00AE0012106E0017006E046
:104D50000123FBE7202901D102210170012318461C
:104D600070472DE9F0410E46804600213346024649
:104D700008461DF015FE00270446401C15F0DEFF16
:104D8000050008D0611C334642462F551DF008FE31
:104D90002846BDE8F081FEE72DE9F0471E4614469F
:104DA0000D468246DDF8209015E000BF4FEA54081A
:104DB0004A46504608FB065739469047002808DD0A
:104DC00044F30000C0EB540407EB0605A4F1010412
:104DD00001E005DA4446002CE8D12046BDE8F08722
:104DE0003846FBE72DE9FC5F9B4681460CAB8A46C3
:104DF000DDE91160DDE90F5793E812105FEA807872
:104E00004FF030031AD45EB15FEAC07808D000F0EA
:104E10000C0858EA0C0803D0761E01E00B55641C00
:104E2000BC4204D2202CF9D301E00B55641C5FEA8C
:104E3000C07803D0B44201D2202CF6D35FEAC06818
:104E400025D55FEA40580AD44CB1BC4201D0B442E7
:104E500005D1641E03D0102D03D1641E04E0102D73
:104E600002D0022D0AD00EE0850603D4202C1ED2DB
:104E7000782506E0202C1AD2582502E0202C16D2E4
:104E800062250D55641C202C11D20B55641C202C5E
:104E90000DD2BCF1000F01D02D2306E0430701D550
:104EA0002B2302E0030702D520230B55641CC846C0
:104EB000CDE900BA15468B468146AA46800714D133
:104EC000274607E02A46C4466D1C2020DDE9003154
:104ED000E0477F1CB742F5D307E02A466D1C641EED
:104EE000DDE900311BF80400C047002CF5D15FEA72
:104EF000897006D409E02A466D1C2020DDE90031C6
:104F0000C047A5EB0A00B042F5D32846BDE8FC9F98
:104F10002DE9F04F8FB099468B46924686464FF06A
:104F20000002DDE91818DDE91C63DDE91A4709B95B
:104F300023F0100307AD580500D5C9B1B1FBF4F05B
:104F400004FB1010C0B20A2801D2303009E05FEA39
:104F5000836C02D54FF0410C01E04FF0610C6044CE
:104F60000A38B1FBF4F1A854521C09B1202AE5D348
:104F7000CDF808805946CDE90563CDE90052CDE969
:104F800003474B4652467046FFF72CFF0FB0BDE873
:104F9000F08F2DE9FF4F8FB01CACDDE9239594E82D
:104FA000030820AC94E8C004002450EA010201D1B7
:104FB00025F010050DF11C086A0502D550EA010222
:104FC00017D032463B46FBF78FF9D2B20A2A01D2FC
:104FD000303206E0AB0601D5412300E061231A44DC
:104FE0000A3A08F80420641C50EA010201D0202C7F
:104FF000E7D3CDE900840FAFCDF808B0CDE9059532
:10500000CDE9036A97E80F00FFF7ECFE13B0BDE8A7
:10501000F08F9A4200D28854704770472DE9FF4FB5
:1050200089B0054692464FF000040A98002800D146
:10503000F74D6EE1252804D00A992246641C534698
:105040002DE2491C4FF0000808460C9101782B29ED
:1050500019D004DC202919D0232904D119E02D29E5
:105060000ED0302909D00026C8B2FEF7FBFCB0B143
:105070000CA8FEF7E0FC06461FE048F001010AE03C
:1050800048F0020107E048F0040104E048F008019C
:1050900001E048F01001401C88460C90D6E70C99BE
:1050A00008782A2809D1169840C81690002E02DAEE
:1050B000764248F00208491C0C910C984FF0000B06
:1050C00001782E2919D1401C0C9048F48068007892
:1050D000FEF7C8FC20B10CA8FEF7ADFC83460CE03F
:1050E0000C9801782A2908D1169904C91691002A2A
:1050F00000DC0022401C93460C900C9801786C292F
:105100000AD004DC68290FD06A2919D128E0742953
:1051100029D07A2914D126E0401C0C9048F48078DC
:1051200001786C291CD00BE0401C0C9048F08008E2
:105130000178682904D148F04001401C88460C9051
:1051400002460078692822D015DC62281FD00DDCC9
:10515000252872D050281AD058287FF46DAF16E059
:1051600048F40071E9E748F48071E6E763287DD0F0
:105170006428F2D10BE0732879D004DC6F2806D0C4
:105180007028EAD103E0752801D07828E5D1782885
:105190000DD058280BD070280BD0502809D06F287C
:1051A00016D0622816D00A2128F0100816E0102127
:1051B00007E05378102148F48878562B04D1521C0C
:1051C0000C921078582807D01078502804D005E0A9
:1051D000082108E0022106E048F02008107869283C
:1051E00003D0642801D028F00C085FEA485001D5AC
:1051F00028F001081078692820D064281ED056288D
:105200007ED05FEA88507CD5169804ABC01D002282
:1052100083E8060820F007000292CDE9076800F154
:1052200008015346026816914068CDE900202246E5
:105230000A992846FFF7ADFE67E02BE15FEA885048
:1052400028D516984FF0000CC01D20F0070202F17F
:1052500008001690D2E90002CDE9041CCDF818B080
:10526000002ACDE9076803DA012602E09AE0C4E0EB
:1052700000260296002319461B1A914101DA1146B5
:1052800003E00021404261EB020153462246CDE992
:105290000001CDE75FEAC8500FD5169A01CA1692F1
:1052A000CDE9021BC10F0028CDE9046800DC4042B3
:1052B0005346CDE90001224620E05FEA486005D56B
:1052C000169810F8042B1690D0B20BE05FEA086035
:1052D00005D5169830F8042B169010B202E0169AF5
:1052E00001CA1692CDE9021BC70F0028CDE9046858
:1052F00000DC40425346CDE900072246284601E043
:1053000010E01FE00A99FFF703FE04460C98401CCA
:105310000C900C99087800287FF48CAE544576D216
:105320002246C0E01699AAEB040201C91691416811
:105330000968009103680A9801192846FFF76EFE74
:105340000444E3E75FEAC8500DD5CDE9021B169887
:105350000022CDE90468011D169153460068CDE98D
:1053600000022246CAE75FEA486005D5169810F8A1
:10537000042B1690D0B20BE05FEA086005D51698B2
:1053800030F8042B169090B202E0169A01CA1692D9
:105390000027CDE9021B53462246CDE90007CDE99F
:1053A0000468ABE75FEA88704FF0010706D509E0B3
:1053B00022460A99641C53462020A847B74207F1A9
:1053C0000107F5D316982246641C534610F8041BB7
:1053D000169001F0FF0C0A996046A8475FEA8870B2
:1053E00006D493E722460A99641C53462020A84716
:1053F000B74207F10107F5D388E7169850F8049BE8
:105400001690BBF100004B4604D0024604E048E091
:105410001B5000084FF0FF32484600E0401C017866
:1054200011B1521E511CF9D1C71A5FEA485003D579
:105430005F45584600D307465FEA887006D511E0FD
:1054400022460A99641C53462020A847B74207F118
:105450000107F5D306E009F101092246641C0A9907
:105460005346A84799F8000028B15FEA4851F2D5A1
:10547000BBF1010BEFD25FEA887006D446E7224603
:105480000A99641C53462020A847B74207F1010738
:10549000F5D33BE722460A99641C53462520A847CA
:1054A00034E7AAF101020A9900205346A8470DB03B
:1054B0002046BDE8F08F4FF0000210B568B14B1EDA
:1054C000194200D0FEE70844401E9843B0F5803FE3
:1054D00003D20C2800D80C200246104610BD4A1EEC
:1054E0000844A0F10100114220EA020000D0FEE7CA
:1054F000704700002DE9F0410F4604460121418626
:1055000000252E460BE01B49FBF702F810B16D1C7D
:10551000ADB202E0608E401C6086761CB6B257F8D1
:10552000260010B101780029EDD1208EA8421ED0AE
:10553000A06A002610B115F08DFCA662E06A10B1D9
:1055400015F088FCE662E80015F0F8FBA06238B1BF
:10555000680015F0F3FBE06218B1A16A11B102E036
:10556000FEE7FEE70025690015F072FD2586BDE81F
:10557000F0810000E02E01082DE9F84F8146407AC5
:105580000F4600F00700022805D0104697428046DB
:1055900003DD3E4602E00846F8E716462A4C2B4B50
:1055A000032000EB460222F00305D4E9012019682C
:1055B0001035411A05EB010C944503D2416821F0E6
:1055C000004122E0954219D89A464FF0FF3B481916
:1055D0006168884210D91E4800226946CDF800B0A3
:1055E0000BF046FF1B48002269460BF041FFA16803
:1055F000DAF80000091AEAE7A068DFE7284615F0A4
:105600009DFBC0B1416841F00041416088EA6702FA
:1056100089EA02014268A0F80E8002F0404201606F
:10562000521C32F080414160868105D500F11001A5
:105630008160BDE8F88FFEE7A16801F11002826089
:105640002944A160F5E70000C800002028020020DE
:105650003DE70008D114010870B586B0444C002223
:1056600014238DF808204FF4B4768DF80C208DF8B3
:10567000102090F83C20A57802F00302012A23D0E4
:10568000022A59D0AA4211D010F8265F05EB051561
:1056900005EB4505B5FBF3F52570407800EB0010F0
:1056A00000EB4000B0FBF3F06070A27004AA03A806
:1056B00001EB4101CDE900024FF6FF70627800EA8C
:1056C0004100217802AB1AE0AA4210D0858C05EB8C
:1056D00045056D02B5FBF6F5A58090F8270000EBB7
:1056E000001000EB4000B0FBF3F06070A27004AA61
:1056F00003A802ABCDE900026278C9B236E008F037
:105700001FFD9DF81010BDF800309DF80C20C90851
:105710009DF8080061F304039108C20898B261F390
:105720004A1080B262F3CF20ADF8000080B2009042
:10573000BDF8000006B070BDAA4210D0858C05EB04
:1057400045056D02B5FBF6F5A58090F8260000EB47
:10575000001000EB4000B0FBF3F02070A27004AA30
:1057600003A802ABCDE90002CAB22178A088C6E73F
:105770007401002010B5084C012020700748FEF786
:1057800020FF0028A06803D0BDE810401CF07ABDBF
:10579000BDE810401CF06ABD000200204C0D042042
:1057A00070B5044690F84200A26B810709D4B4F8A2
:1057B000401049B1A1F57F43FF3B1BD0491EA4F81F
:1057C0004010B4F84010A9B90AB1810712D51648A3
:1057D0002146FEF760FFFFF7CDFFE16809B12046E3
:1057E0008847216909B1204688472046BDE87040B6
:1057F00015F030BBE16B002AC1F10001216311D02B
:10580000810702D4616B49422163A56A4110236A72
:10581000491CA362E36A61F341002562E26284F8F5
:105820004200A36370BD00004C0D042070B5304DE4
:1058300068681CF0E3FB0646687880F00100687039
:1058400048E00020287094F842006978C0F3800294
:105850008A4243D061F38200216B84F84200020740
:1058600001EB060219D4002917DC002A15DBC0075A
:1058700009D1616939B120468847216AA26A014489
:1058800021621044A062A16809B12046884794F8BB
:10589000420040F0080084F84200206B8019206329
:1058A00016D4E16A884200DD21632046E169884719
:1058B0000146606A884204D0626861620AB1206869
:1058C0009047D4E90B01814202DB2046FFF768FFD5
:1058D000287818B10748FEF774FE03E00548214612
:1058E000FEF781FE0400ACD11CF08EFB686070BD39
:1058F000000200204C0D042070B5044640680D469F
:1059000008B1FFF7F9FF2268002A04D02946204693
:10591000BDE87040104770BD89B20CF05EBD89B221
:105920000CF097BD2DE9FF4F97B016464FF00009D8
:10593000DDE924B22B9B042B924612D0052B12D00A
:10594000062B13D0142B76D1012702251A9810FBB1
:1059500006F00D901898401E0B90701E0A900024BF
:1059600050E10027F1E701270325EFE70127022592
:10597000FFF7BCF80068D0F83890E7E72698279939
:10598000604361430BEB20220AEB212110124FEA06
:1059900021287CD4189B984279DAB8F1000F76DB85
:1059A000B045F9DAD2B2802AC9B205DAC2F17F0372
:1059B0004FF0FF3C5A0004E052004FF0010CA2F5FA
:1059C00080720992802907DAC1F17F024FF0FF311E
:1059D00007915100089105E04900A1F5807101226D
:1059E000CDE907211A9A179908FB020310EB0C0264
:1059F0000C9203FB051E70D411460B9A91426CDC8D
:105A0000079A18EB020168D40A9A914265DC1A9B46
:105A1000002F079A12FB03F31CFB05E20E9203FB17
:105A200005E216926BD02B9A052A05D0142A0AD0CB
:105A3000062A53D060E0E9E016980E999EF80220FD
:105A40008078897813E01A9ADDF85CC0514308FB2E
:105A500002F30D9A0CEB4202C446DDF86880104454
:105A60000CFB082C1A5C085C0C991CF80110904285
:105A700009D0089B10FB03F30898C0F5807012FB57
:105A80000030C0F3072091420BD0099B00E09EE05C
:105A900011FB03F30999C1F5807112FB0131C1F3C8
:105AA000072108442A99400808555ED09EF8010055
:105AB0009EF8001001EB0020ADF810001698017858
:105AC000407801EB0020ADF814000E980178407882
:105AD00001EB0020ADF808001FE047E0BEF8001021
